:10000000A067032079E40300A1E2030075E4030084
:1000100075E4030075E4030075E4030075E4030070
:100020000000000000000000000000006567030001
:1000300075E40300000000007D670300E56703002E
:10004000B5BD0300B5BD0300B1C3030051D3030028
:10005000E1D20300C17D0300F57D0300297E03008A
:100060004D7E03003DB10300A1B00300CDB10300FC
:1000700015B20300000000000000000000000000B6
:100080000000000000000000000000000000000070
:100090000000000000000000000000000000000060
:1000A0000000000000000000000000000000000050
:1000B0000000000000000000000000000000000040
:1000C0000000000000000000000000000000000030
:1000D0000000000000000000000000000000000020
:1000E0000000000000000000000000000000000010
:1000F0000000000000000000000000000000000000
:1001000000000000000000000000000000000000EF
:1001100000000000000000000000000000000000DF
:1001200000000000000000000000000000000000CF
:1001300000000000000000000000000000000000BF
:1001400000000000000000000000000000000000AF
:10015000000000000000000000000000000000009F
:10016000000000000000000000000000000000008F
:10017000000000000000000000000000000000007F
:10018000000000000000000000000000000000006F
:10019000000000000000000000000000000000005F
:1001A000000000000000000000000000000000004F
:1001B000000000000000000000000000000000003F
:1001C000FFFFFFFFFFFFFFFFFFFFFFFFFFFFFFFF3F
:1001D000FFFFFFFFFFFFFFFFFFFFFFFFFFFFFFFF2F
:1001E000FFFFFFFFFFFFFFFFFFFFFFFFFFFFFFFF1F
:1001F000FFFFFFFFFFFFFFFFFFFFFFFFFFFFFFFF0F
:100200000348044B834202D0034B03B118477047A5
:10021000040600200406002000000000064B0749E9
:10022000C91A891048BF0131491003D0044B0BB1E2
:1002300001481847704700BF04060020040600204C
:100240000000000010B5064C237843B9FFF7D8FF33
:10025000044B13B10448AFF300800123237010BD99
:1002600020060020000000009431050008B5054B71
:100270001BB105490548AFF30080BDE80840FFF712
:10028000CDBF00BF0000000024060020943105000F
:10029000D1F81C2638B50C46054652B19368C3F513
:1002A000AF61012905DDD1180D7401330020936081
:1002B00038BD204600F0F0FE18B1D4F81C26936833
:1002C000F1E74FF0FF3038BD88B10EB400B5037AC6
:1002D0000246042B82B005D004AB03980449019375
:1002E00002F042F902B05DF804EB03B070477047CA
:1002F00091020000054B01E0984205D01B68002BDD
:10030000FAD14FF0FF307047006A70473C0600207A
:1003100038B5124C246844B1A3421D4602D107E00F
:10032000A54205D02468002CFAD16FF47B7038BD4B
:1003300002FB01F12B6A2C69E41A8C4228BF0C469F
:100340000CB9204638BDE9682246194448F0E1FA64
:100350002B6A204623442B6238BD00BF3C06002098
:1003600010B51C4601F05EFE064B1A6812B905E096
:1003700012681AB19442FBD1002010BD6FF47B705B
:1003800010BD00BF3C060020124A1368F3B198422A
:1003900010B5044602D108E09C4206D01A461B68FC
:1003A000002BF9D16FF47B7010BD23681360237D9F
:1003B00023B9204600F040FE002010BDE06848F060
:1003C000BDFA204600F038FE0020F6E76FF47B709F
:1003D000704700BF3C06002038B5144B1B6843B182
:1003E0009842044602D107E09C4205D01B68002BCE
:1003F000FAD16FF47B7038BD012A256910D0022A2A
:1004000009D04AB10A4801F021FE00218D4205DBE6
:100410000020216238BD29440029F7DA054838BD9B
:10042000236A19440029F1DAF8E700BF3C060020EE
:100430006CA4040012FCFFFF2DE9F043DFF81C81DF
:100440008DB0D8F80430019391F90030722B3FD170
:100450003F4C0746206830B102AE3246394601F0C3
:10046000CDFC002861D0019C09E0D8F8003002AE34
:100470003946324653F8240001F0C0FC70B32346DD
:10048000013C002BF1D1384601F082FD0446C8B191
:10049000282000F09DFD8146D0B10023C461436057
:1004A0008360C36003614361836100224846294B36
:1004B000C9F820201968C9F80010C3F800900DB0E1
:1004C000BDE8F083384601F005FD04460028DFD181
:1004D0004FF0000948460DB0BDE8F08305462820DE
:1004E00000F076FD81460028F2D00FCE4FF0000ECE
:1004F00009F1040CACE80F003368CCF80030C9F8FF
:100500001CE0ADB128461449C9F818E007AA01F06B
:1005100075FC0028C9D13946099848F035FD0028F6
:10052000C3D00123C9F81830BFE72568019CD6E77E
:10053000019B9C42B9D2D8F80030074953F82400F7
:1005400007AAC9F8185001F059FC0028ADD1E2E71C
:10055000400600203C06002078A4040054DF04007C
:100560002DE9F04781460F461646114C04F10C0860
:1005700054F804ABBAF1000F06D031463846DAF829
:1005800000309847054620B94445F1D10948BDE8F7
:10059000F08702464946504600F008FE10B10020A0
:1005A000BDE8F0872846DAF80C3098470248EEE7B5
:1005B0000000002014FCFFFF16FCFFFF10B4D3E97D
:1005C00001346468A4465DF8044B604710B50446E6
:1005D000D0E90103DB689847034620461C4600F03B
:1005E000F7FD204610BD00BFD0E901031B69184785
:1005F000D0E901035B69184730B52B4C8DB02368F7
:10060000002B3CD006220121022043F041FC03468E
:10061000264C013320603AD0002204251146244B99
:10062000009544F087F8009501220021204B2068B6
:1006300044F080F8102241F2D06004219FED187B35
:100640000092CDE9020102AB0D22002120688DED60
:10065000047B44F06FF818224FF4A0430DEB020125
:100660002068ADF81A3043F01FFE0F21206844F0D7
:10067000DBFB012200200F4B1A600DB030BD43F0B0
:10068000EDFC206043F0EAFC0B4B1860BAE77E21DA
:100690000A4B0B4A0B483DF0C7FD00BFAFF300808B
:1006A000680B0000020000004806002054060020ED
:1006B0005CA704004C0600204406002088A4040027
:1006C00060A70400ACA40400182310B5134A88B036
:1006D000106802A901AA019344F0D8F9041E18DB9E
:1006E000019B182B13D100F0FBFCA8B1446000243F
:1006F00000F5C86E0DF1080CBCE80F00AEE80F0065
:100700009CE803008EE80300204608B010BD01F00D
:1007100089FC6FF47A74F7E7014CF5E75406002082
:1007200016FCFFFFF0B51F49044691B0093048F0B0
:100730002BFC20B3EC46002300F10F0104E0013351
:100740003F2B0CF8012B08D011F9012F0D2AF6D1FF
:10075000002240336B4403F8402C0023124F0C2539
:100760003E468DF83F3006E0D6F88410684635F0F6
:100770001FFB0C3E48B9013DF6D211B0F0BD84F824
:100780003406C4F8380611B0F0BD05EB450507EB9B
:1007900085073A79BB6884F83426C4F8383611B036
:1007A000F0BD00BFCCA40400CCA60400D0F86016B5
:1007B0002DE9F04111F0100806463FD1D0F8183667
:1007C00011F008011C4627D09CB300270DE02368D8
:1007D0002046C6F81836276000F074FC00F056FD7D
:1007E000D6F81846C6F868061CB3D4E90253ED1AC9
:1007F00003F110012A4600237068214444F05CFA9A
:100800008542E4D048F06EFC03680B2B1CD100231A
:10081000E3604046BDE8F08123B19A681B6811444B
:10082000002BFAD1304600F019FE78B9D6F81846F8
:10083000CAE73046BDE8F04100F086BED0F8581651
:10084000BDE8F04100F0A6BE01F0ECFB6FF47A7851
:10085000DFE700BF2DE9F84FD0F858A6604BDAF873
:10086000082005469A4200F087800AF580563269D2
:100870005C4FDFF88C8102F1100053460121C2F574
:1008800080525044FFF79AFE041E40F3848000F02B
:10089000FDFC3369D5F860262344D206C5F8680606
:1008A00033617FD47469A3421CDC82E0D5F818362A
:1008B0002BB1D5F81C269368B3F5AF6F07DB28463C
:1008C00000F0EAFB00284BD0D5F81C269368591C91
:1008D00091600AEB0401097C1A44117433690134F4
:1008E000A3422BDD0AEB040393F91420232ADDD164
:1008F00093F91130212BD9D104F110030AEB03092C
:100900003946484648F040FB98B3A0EB090000F197
:10091000030B0C2241464846746148F0B9F898B17F
:100920000A224846304948F0B3F8F0B1D5F85836B5
:100930005C44534510D100237361B7E772698ABBE9
:10094000002C2FDD326196E7284601F037F8D5F804
:1009500058365C445345EED074610020BDE8F88FF2
:1009600001F060FB2148BDE8F88F284601F092F8BD
:10097000DCE701F057FB99E7DAF80410CB69002BAC
:100980003FF473AF9847B0B9D5F858A6BAF1000F45
:100990007FF46BAFE1E75046FFF718FED5F8583605
:1009A000002BDAD103232B722846BDE8F84FFFF75E
:1009B000FDBE2246C3E7D5F83C4628460C49FFF762
:1009C00083FC224628460B49FFF77EFC28460A494D
:1009D000FFF77AFC2846FFF7E9FE0848C3E700BFA7
:1009E0000C00002008A604001CA6040016FCFFFF53
:1009F000E0A40400DCA50400F4A5040012FCFFFF41
:100A00000CA604002DE9F04100F109070446ADF5FC
:100A10000A7D38469B4948F0B7FAC0B305462046E0
:100A2000FFF780FE2B1D94F9091094F90A20C4F8F1
:100A3000143694F90B3094F90C6042EA012243EA2F
:100A4000022346EA0326904B9E4226D003F5C0239C
:100A5000CC339E4219D0A3F111639E421DD001F008
:100A6000E1FA40F2F511204600F016FC04224FF0A6
:100A7000FF35D4F86036227223F00103C4F86036E3
:100A800028460DF50A7DBDE8F08101F0CBFA00257E
:100A900028460DF50A7DBDE8F081C4F85C6604F1D6
:100AA0000C0000F0E1FD8046002800F0A08090F9E5
:100AB00000302F2B00F084800346C4F820364146D6
:100AC000724800F0E9FD4146C4F82806704800F07D
:100AD000E3FD4146C4F824066E4800F0DDFD4146C2
:100AE000C4F82C066C4800F0D7FD08B148F0F4F9C2
:100AF0006A4BC4F810069E426AD0D4F8200687429A
:100B000002D2A842C0F09F80D4F82806874202D2C1
:100B1000A842C0F09B80D4F82406874202D2A842A3
:100B2000C0F08E80D4F82006D4F82C36984201D933
:100B3000AB427FD301F0E6F994F8343633B158492B
:100B4000D4F8200635F034F9002862D12046554A01
:100B5000D4F82016FFF704FD0546002D53D1D4F834
:100B60005836002B7ED09A68002A7BD0586800281F
:100B700078D09569ADB1D4F82836002B3ED020222C
:100B800020460AAB02A9009201F026F8D4F85836A4
:100B90000AAAD3E9010502A92346AD69A84700289E
:100BA00065D0204600F0B2FED4F860363B4A23F010
:100BB00008039642C4F860364BD00123237266E7DF
:100BC00090F90130202B0ABF374B431C1B6874E798
:100BD00040463F2147F087FD00288ED00146002384
:100BE000204601F8013B00F017FE002885D04FF4A5
:100BF000C871204600F050FB2C4D41E72C4A23469B
:100C00001146A847CBE74FF4CA71204600F044FBD9
:100C100036E7D4F838160AA847F014FDD4F82016A1
:100C20000AA847F051FD20461E4A0AA9FFF798FC82
:100C3000054692E7184600F081FDD4F8200679E7D2
:100C400000F07CFD6EE700F079FD5DE700F076FDD9
:100C500061E70223204623720DF50A7DBDE8F041CD
:100C6000FFF7F8BD01F0DEF96FF47B7508E740F29D
:100C70009111204600F010FBD4F85806FFF7A6FCAF
:100C80000C4DFDE668A7040054534F5028A60400FD
:100C900038A6040044A604004CA60400205445478E
:100CA0005CA6040078C304005000002015FCFFFF80
:100CB0006CA9040010FCFFFF2DE9F84FB14EDFF8DE
:100CC000D482DFF8D4920122D8F80010306843F0C3
:100CD000D9F9AD4D3368D9F800402B60F4B1AB4F72
:100CE0000AE00222396843F0CDF963682A6893422A
:100CF00088BF2B60246884B16068431CFAD0237AD3
:100D0000002B34D0D4F81836002BEAD1D4F8603652
:100D1000D906E6D42468002CEED12B6803F5E873DD
:100D20002B609B4BD8F80000196843F01BFA421C5B
:100D3000074600F02081D8F80010306843F0F0F941
:100D4000002840F00181D9F80060002E3BD000253A
:100D50004FF0020A4FF0040934463668237A042B18
:100D600000F20C81DFE803F07A49320E43000122E1
:100D7000D8F8001043F086F960682B68984288BF65
:100D80002860BFE7D4F81836002B00F09480D8F81C
:100D90000010606843F0C4F9002840F0998000F02A
:100DA00075FA237A0137032BC4F86806D7D1D4F833
:100DB000683603F5123B00F069FA0BF5F87B8345C2
:100DC00015D3002EC8D13846BDE8F88F2046FFF76E
:100DD00041FDD8F800100546606843F0A1F90028ED
:100DE00040F084800137002D60D084F808902046C0
:100DF00000F094F9002EAFD1E5E7D4F80C16D4F842
:100E00005836B1F5C06F5B6838D004F10905C1F5FB
:100E1000C06200232944606843F0B6FE0546002DF9
:100E2000C0F28B80D4F80C362B44C4F80C3600F09A
:100E30002DFAD4F81416C4F8680659B1D4F80C3653
:100E400004F10900D4F81026081A1B1A9A421FDD73
:100E5000802D1DD0237A012B81D1A8E7D8F800106E
:100E6000606843F05DF9002847D1D4F80C36002BB8
:100E70005DD1237A002B7FF472AF98E7DB69002BFA
:100E8000CDD000F003FAD4F81416C4F8680659B1AE
:100E9000204600F0C1FC054600285ED184F808A079
:100EA00000F0F4F9C4F868060025D3E7237A022B92
:100EB0007FF455AF7BE7D4F86036DB067FF577AF7C
:100EC000D8F80010606843F02BF900283FF467AFB2
:100ED0002046FFF76BFC054608B184F808902B4BC1
:100EE00002221968606843F0F5F858E70122D8F843
:100EF0000010606843F0EEF874E7D4F80C0604F1D3
:100F00000901C0F5C06201440023606843F03CFE63
:100F1000051E28DDD4F80C362B44C4F80C3600F03E
:100F2000B5F9D4F80C36C4F86806002BA1D02046D9
:100F3000FFF768FD013705469BE748F0D3F80368E3
:100F40000B2B18D100256DE7FFF7BEFB00283FF4FF
:100F5000FAAE07463846BDE8F88F4FF4C871204610
:100F600000F09AF923E748F0BDF8204600F0D6F8E3
:100F70006FF47A7727E748F0B5F8F9E701F052F80F
:100F800015E700BF5406002050060020440600204C
:100F90004C000020480600206806002038B50B4DA4
:100FA0002C682CB910E001203EF090FE2B685BB15C
:100FB000FFF782FE041EF6DA01F034F801203EF05D
:100FC00085FE2B68002BF3D1204638BD4C0600204F
:100FD000F8B500F10C06044630463DF0E1FA05464E
:100FE0003246002148F02EF90E4F0F4B0F4ED3F82A
:100FF00000C03B680E495A1C336805F108000133F4
:10100000C5E900C4DFF82CE040F804C033600B6889
:101010003A601C44DEF800300C609C4288BFCEF879
:101020000040F8BD6406002058000020580600204B
:10103000600600205C06002070B5124D50F8082CA8
:101040002B6804469A42A0F1080603D00E4800F02F
:10105000FDFF2B6854F8042CA158994204D00B488A
:1010600000F0F4FF54F8042C094C0A492368304678
:10107000013B23600B68BDE870409B1A0B603DF09C
:1010800029BB00BF5800002070A7040080A70400FF
:10109000640600206006002010B504464FF4B160DD
:1010A000FFF796FF48B1D4F81C3603B11860D4F8A6
:1010B0001836C4F81C060BB1446010BDC4F81806FD
:1010C000FAE700BF4268D2F8183613B906E01B6889
:1010D00023B19842FBD10368C2F81836FFF7ACBFC2
:1010E00010B540F26C60FFF773FF044690B14FF00B
:1010F000FF3200234260037200F0C8F8064AD4F8B9
:101100006036116843F001032160C4F86036146052
:10111000C4F86806204610BD6806002038B50546AC
:101120004068431C03D043F07DFA00236B601E4AE5
:1011300013684BB19D42196802D132E09D422DD017
:101140001A461B68002BF9D1D5F8180688B14268F9
:10115000D2F8183613B906E01B6823B18342FBD1DD
:101160000368C2F81836FFF767FFD5F8180600289D
:10117000EDD1D5F8580608B1FFF728FAD5F8304672
:101180003CB120462468FFF757FFC5F83046002CD5
:10119000F7D12846BDE83840FFF74EBF2B681360F3
:1011A000D2E71160D0E700BF6806002070B50546A1
:1011B00041F218000C461646FFF70AFF38B1D4F882
:1011C0005836C0E90165C4600360C4F8580670BDB4
:1011D000C26808B5D2F8583643B1984202D10FE040
:1011E000984207D01A461B68002BF9D1FFF724FF5D
:1011F000002008BD03681360FFF71EFF002008BD34
:101200000368C2F85836FFF717FF002008BD00BF7B
:10121000004870475C00002090F900305C2B31D012
:101220002F2B2FD091F900305C2B29D02F2B27D0DA
:1012300000F1FF3C1CF9013F43F0200023B391F97A
:10124000002000B542F0200EBAB1704507D05C2BEB
:1012500001D02F2B11D15C2A01D02F2A0DD111F9E9
:10126000010F58B11CF9013F43F020002BB191F957
:10127000002042F0200E002AE7D101205DF804FB97
:101280000131D5E70130CDE70120704708B53EF0C8
:1012900045FD20EAE07008BDB1F5C87F2DE9F041B9
:1012A0000F46064600F0A08040F2911399427DD08F
:1012B000B1F5C97F00F0A780B1F5CA7F00F0A68024
:1012C00040F2F513994200F0A480534D0A46534B67
:1012D0005349284647F090FD284647F051FD034604
:1012E0003046DFF838811D44FFF792FF02464D4932
:1012F000284647F081FD284647F042FD05444A4A0A
:101300004A49284647F078FD284647F039FD864689
:10131000DFF834C12C18BCE80F0045F80E00DCF8EB
:101320000000E360BCF804306160A382A260206129
:10133000204647F025FD04443A463D49204647F003
:101340005BFD204647F01CFD04443A4643462046D8
:10135000384947F051FD204647F012FDD6F82026C7
:1013600004443AB12046344947F046FD204647F050
:1013700007FD0444314D0FCD616029782060A260E3
:10138000E3602174244847F0FBFC00230246224915
:10139000706843F091FC706843F044F904234FF007
:1013A000FF32337200207260BDE8F0811A4D0A46A8
:1013B000234B1B49284647F01FFD284647F0E0FC19
:1013C000034630461D44FFF723FF164902462846D0
:1013D00047F012FD284647F0D3FCDFF86480D6F8CA
:1013E00020261849054483E7DFF860800A4D43460C
:1013F0003A460B49284647F0FFFC284647F0C0FC18
:10140000034630466FE7DFF84880EFE7DFF84480B7
:10141000ECE7DFF84480E9E770060020A8A70400A5
:10142000BCA80400D0A8040004A804001CA8040060
:1014300044A8040074A8040098A80400A8A8040004
:1014400090A70400DCA804002CA80400E0A7040076
:10145000CCA70400BCA70400F4A704002DE9F041C8
:10146000314F324D3C46064688460FCD0FC42B689F
:1014700082B03846238047F083FC05463046FFF7AC
:10148000C7FE3D4402462A49284647F0B5FC284697
:1014900047F076FC0544274A2749284647F0ACFC2C
:1014A000284647F06DFC8646DFF898C02C18BCE84B
:1014B0000F0045F80E00DCF80000E3606160A260F8
:1014C0002061204647F05CFC04441C49D6F86426A1
:1014D000204647F091FC204647F052FC424618490E
:1014E000204447F089FC384647F04AFC0446002374
:1014F00039462246706843F0DFFB0190019BA3420E
:1015000009DB0020D6F8603643F00803C6F86036E1
:1015100002B0BDE8F08147F0E5FD03461B686FF4BB
:101520007A700193F4E700BF7006002004A904005C
:1015300018A9040004A804001CA804003CA9040085
:1015400050A9040028A90400D0F8603610B59A0606
:10155000044617D45B060BD500F064FDD4F858267A
:101560009368DB6993B12146BDE810405068184785
:10157000406843F057F84FF0FF3204236260237253
:10158000002010BD00F04EFD0023F8E76FF47B70E3
:1015900010BD00BF2DE9F0410F46D0F8601605469A
:1015A00011F0080432D04FF0010807F5805407F11C
:1015B00010062A7A032A20D1226952B94FF48052A8
:1015C0003B4601213046FEF7F9FF00280246206124
:1015D00045DB00233146686843F06EFB002834DBAE
:1015E0002369B3F5805F0BD23846FEF7EFFF28463C
:1015F000FFF7AAFFB8F1010FDBD10020BDE8F081B1
:101600000023012023613EF061FBF3E73846FEF73B
:10161000EFFF2146064602223846FEF7E5FF384630
:10162000FEF7E6FF034622461C4631463846FEF7E3
:10163000DBFFB4F5003F28462146ACBF4FF0010860
:101640004FF0FF38FFF70AFFAFE747F04BFD0368A5
:101650000B2BD2D06FF47A70002BCED0CEE76FF484
:101660007B70BDE8F08100BF90F90030202B03DDD6
:1016700010F9013F202BFBDC202B0BD190F900301F
:10168000202B03D110F9013F202BFBD01F2BD8BFFB
:1016900000207047002070472DE9F8430C460646AD
:1016A00047F06EFB244F814604F5C06807E0042232
:1016B0003946284647F0ECF9D0B3A04538D0254646
:1016C00096F9003014F901CB9C45F0D14A463146D9
:1016D000284634F051FB0028E9D195F90030202B41
:1016E00003DD15F9013F202BFBDC202B20D195F9E0
:1016F0000030202B03D115F9013F202BFBD01F2BED
:1017000016DD95F90030202B2B4603DD13F9012F50
:10171000202AFBDC1A46002102F8011B5B78013B02
:101720001F2B06D812F8013F013B1F2BFAD900E00E
:1017300000252846BDE8F88368A9040090F9003028
:10174000202B03DD10F9013F202BFBDC0023024698
:1017500002F8013B90F901104B1EDBB21F2B05D89C
:1017600012F9011F4B1EDBB21F2BF9D9002914BF40
:1017700010460020704700BF30B5864600200EF1AD
:10178000FF32144612F9011FCBB2A3F1300CBCF1A9
:10179000090FA3F16105A1F1300C06D84FFA8CF3C3
:1017A000A64503EB0010ECD130BD052DA3F141039C
:1017B00004D9052BF8D8A1F13703F1E7A1F15703BC
:1017C000EEE700BF90F90030202B23DD70B5044612
:1017D00020262B2B04F101051AD0252B05D02C46F1
:1017E00094F90030202BF4DC70BD2846FFF7C4FFCD
:1017F000C2B20346002AF3D004F8033B284647F060
:10180000BFFA024621462846013A47F001FDE6E7C5
:101810002670E4E7704700BF2DE9F04F91F90050C2
:1018200083B00190002D54D00C460B46002704E0F5
:10183000202D09DD13F9015F35B13D2DF8D113F9E4
:10184000015F0137002DF8D1B81CC000FFF7C0FBC5
:101850008146002853D04760002F41D0002605461E
:10186000B0460CE004F8018BA868FFF7ABFF013627
:10187000E868FFF7A7FFBE4205F1080530D03D211B
:101880002046AC6046F02FFF8346A0B382460AF89C
:10189000018B26215046C5F80CA046F024FF0446D3
:1018A0000028DFD19BF90120202A03DD1AF9012F3E
:1018B000202AFBDC524602F8018B9AF80130013BEA
:1018C0001F2B04D812F8013F013B1F2BFAD900242B
:1018D000CAE71020FFF77CFB814680B1C9F80450AD
:1018E0000020019AD2F83036C9F80030C2F830969C
:1018F00003B0BDE8F08F034803B0BDE8F08F0248A5
:10190000F6E700BF15FCFFFF16FCFFFF70B52E21A8
:101910000546D0F8200647F0E3FA00283CD0042220
:101920004FF0000C224E013090F900304FEA0C2CA1
:101930001946F45C04F00304022C08BFA3F1200153
:101940001F2BC9B2C8BF0130013A41EA0C0CEBD1E0
:10195000114640F2EB10174C02E0013181421BD0DE
:1019600054F8223003326345F7D101EB410304EB15
:1019700083039A684B00D20707D40B4404EB83041B
:1019800063680120C5F8643670BDD5F8602642F062
:101990001002C5F86026F0E7D5F86036002043F065
:1019A0001002054BC5F86026C5F8643670BD00BF4F
:1019B0006030050050C8040070A90400F8B5044662
:1019C000D0F858062F4900F580535B69103318444E
:1019D00047F0DAFA002851D00346871D93F9051025
:1019E000384646F080FE0346002847D000253F21B8
:1019F00038461D7046F077FE064620B1411C204651
:101A0000FFF70AFF35702021384646F06CFE054688
:101A100040B3002339462B7020461B4AFEF7A0FD39
:101A2000202307462B702FBBD4F85856174BAA68B3
:101A300020469A4203D0BDE8F840FEF70BBF696824
:101A4000CB69002BF7D098473EB1D4F83006066832
:101A50001EB1FFF7F1FAC4F830662846FEF7B6FD6E
:101A60003846F8BD39462046074AFEF779FD074655
:101A7000002FD9D000F0D6FA3846F8BD00F0D2FADF
:101A8000034FEDE78CA9040078C304000C0000208C
:101A900011FCFFFF70B5D0F85846054604F5805399
:101AA0005B690D221A331C4420460F4946F0F0FFB3
:101AB000A8B994F90D100646272901D022290ED184
:101AC0000E34204646F00FFE48B10021074A01704F
:101AD00013683BB121462846BDE87040184700F026
:101AE000A1FA034E304670BD94A904006C06002094
:101AF00011FCFFFF2DE9F043034613F9012B0446C7
:101B0000202A01D0092A01D11846F5E70546314AB5
:101B100015F9013B52F823303F2BF9DD2D1A15F151
:101B2000020848BF05F105086E1E4FEAA808002EFE
:101B300008EB48083DDDAE1E00F1080326F0030760
:101B40001F4401F1030E031D13F9034C13F904CCD8
:101B500052F8244052F82CC0241144EA8C040EF8A8
:101B6000034C13F9024C13F903CC52F8244052F8F9
:101B70002C904FEAA40C4CEA091C0EF802CC13F985
:101B800002CC13F9014C52F82CC052F82440043313
:101B900044EA8C149F420EF8014C0EF1030ED3D18F
:101BA000B608741C053DC6EB867600EB840405EB95
:101BB0008606B30709D014F9023C52F823303F2BB4
:101BC000CCBFA8F1020808F1FF38002301F8083063
:101BD000BDE8F083ACA904002DE9F047D0F828A6B1
:101BE000ADF5806D42240E4617461D46DDF8208473
:101BF000DFF884900AF1FF3E03E098422FD119F9F3
:101C0000014F1EF901CF44F02003BCF1200F4CF02E
:101C10002000F2DC202C22DC0AF1060A504647F0B4
:101C2000AFF8B0F5806F1AD850466946FFF762FFEB
:101C30003A21684646F057FDB8B1044600233A46BB
:101C400004F8013B6946304646F034FF42462146DF
:101C5000284646F02FFF0DF5806DBDE8F0870DF5A5
:101C6000806DBDE8F04700F0DDB9307028700DF5EB
:101C7000806DBDE8F08700BFA4A904004368B3BB32
:101C80002DE9F043036884680D460444C1188C4272
:101C90001ED9904695F9006046F0200791F90C3066
:101CA00043F02003BB420FD101F10C09AE46CC46F4
:101CB000304688B11EF9010F1CF9013F40F02002A7
:101CC00043F020039A42F4D00B6819448C42E5D8C3
:101CD0004FF0FF30BDE8F0834B688A680B44C8E9D9
:101CE0000232C8F8009088F81000BDE8F0834FF089
:101CF000FF30704790F9003003B310B58C1811E035
:101D0000E64507D05C2B01D02F2B13D15C2A01D0E4
:101D10002F2A0FD111F9013F0BB9A1420CD010F9B4
:101D2000013F3BB191F9002043F0200E42F0200C1E
:101D3000002AE5D1012010BD184610BD01207047D2
:101D400070B591F900300E465C2B044620D02F2B45
:101D50001ED02068551E58B919E02F2B0ED02A46E8
:101D60003046FFF7C7FF88B1A3681C44206870B1F4
:101D700094F90C3004F10C015C2BEED12A4630466C
:101D800004F10D01FFF7B6FF0028EDD1204670BD2C
:101D90000136013ADDE700BF70B591F900601546E4
:101DA0003EB38C463346002405E02F2B08BF644623
:101DB0001CF9013F33B15C2BF7D164461CF9013F9C
:101DC000002BF8D1ACB10134621A04D0012A0BD037
:101DD000FFF7B6FF78B100F10C032A4621466B608D
:101DE000BDE87040FFF74ABF5C2EF4D02F2EEFD134
:101DF000F1E70C46EFE76FF0010070BD034650B10C
:101E000003F1140C1B7D08305C2B04D19CF80130CD
:101E10000BB9FFF7C1BF6FF0020070470020704799
:101E200010B5094C094BA28909480132A3FB0213E2
:101E30005B0803EB4303D21A08210068A2813CF03F
:101E4000DDFD002010BD00BFA0100020ABAAAAAA93
:101E50003823012010B5094C094B62890948013229
:101E6000A3FB02135B0803EB4303D21A10210068A3
:101E700062813CF0C3FD002010BD00BFA010002017
:101E8000ABAAAAAA3823012030B5044685B00C4875
:101E90003CF05EFC0B4A0C4D93895189EB560B4884
:101EA000405602931389D18803900193938820466A
:101EB000528800910649FEF707FA002005B030BDB0
:101EC000580A0020A0100020E0000020E4000020BC
:101ED0005CDF040070B50A4C0546A4F12006B4424C
:101EE00009D02946A069FFF797F9A4F1080320B1AA
:101EF0001C46B442F5D1002070BDE06970BD00BF42
:101F00003CE1040090F9003013B3024605E00132D1
:101F100000F8013C92F90030D3B1252B00F101000B
:101F2000F5D15178A1F13003DBB2092B1CD81B018C
:101F300092F802C00332ACF13001C9B209290AD8C3
:101F40000B445BB200F8013C92F90030002BE4D165
:101F5000002303707047ACF1410105299CBFACF12F
:101F6000370C53FA8CF3ECE7A1F14103052B9BBF2F
:101F70003739C9B200230B01DAE700BF4FF0FF3059
:101F8000704700BF00207047002070470020704756
:101F900070B50A4C0546A4F12006B44209D0294682
:101FA000A069FFF739F9A4F1080320B11C46B44237
:101FB000F5D1002070BDE06970BD00BF9CE1040058
:101FC0000120704708B5FEF7E9FFFCE730B50F4C7C
:101FD00083B0236813B1002003B030BD0C4B1860F0
:101FE000FEF70AFB0028F6D10A250A4A0A490346E9
:101FF00001940A4891614FF48052094900953DF0DF
:102000000DFD2068003818BF0120E5E7740A0020A4
:10201000540000200C000020C11F0000C51F00005C
:10202000BCE1040008B5064B01225B6805489988AD
:1020300039F05AFD044B00BF013BFCD1FAE700BF69
:102040000411050088230120400D030008B5FFF7A7
:10205000E9FF00BF70B5146804431DD00346B3FB0D
:10206000F1FC9E46D4685669651ED56001FB1C359F
:10207000634616F905C08E4504F801CCEFD214680A
:10208000002C09DA137E1D0706D592F91A309468E0
:10209000002B18BF013C1460D2E90331C91AA142D8
:1020A0000ADA3025591ED16003F8015C1468D2E9C0
:1020B0000331C91A8C42F5DC117E490708D538B1C5
:1020C00092F9191021F02000582802D06F290BD066
:1020D00070BD30205C1ED46003F8011CD368591E0B
:1020E000D16003F8010C70BD93F900103029EFD0D6
:1020F0003021581ED06003F8011C70BDFFFFFFFFA8
:102100002DE9F84F57EC106B054600223046394652
:10211000554B46F06DF8002842D04DA3D3E900237B
:102120003046394646F064F8002800F08A800FF205
:102130002819D9E900890FF2181BDBE900AB00244C
:1021400042464B463046394645F0F6FE0A34524682
:102150005B4606460F4624B246F04AF80028EFD107
:10216000002230463946414B46F042F898B14FF0D4
:102170000008DFF8F89042464B463046394645F0B5
:10218000DBFE013442464B4606460F4624B246F07B
:102190002FF80028EFD147EC106B2C80BDE8F88FAA
:1021A0000446002200233046394646F003F88046B4
:1021B0000028F0D12AA3D3E900233046394646F05F
:1021C0000DF800283FD00FF2980BDBE900AB444636
:1021D0000FF28409D9E900893046394642464B4618
:1021E00045F080FD0A3C52465B4606460F4624B247
:1021F00045F0F4FF0028EFD10022304639461A4B53
:1022000045F0E2FF0028C6D04FF000084FF0000A6A
:10221000DFF85890DFF850B03046394642464B461A
:1022200045F060FD013C52465B4606460F4624B22F
:1022300045F0CAFF0028EFD147EC106B2C80BDE8B9
:10224000F88F04468CE70446D6E700BFAFF3008062
:10225000000000E876483742000000205FA00242FC
:10226000BBBDD7D9DF7CDB3D0000F03F0000244040
:10227000F0B590F919401CB1002101201980F0BD82
:10228000002902DB494209B2F7E730251468661CD1
:1022900016602570B0F9006036BB047E670704D570
:1022A0002E251468671C176025704D1C1AD04FF03E
:1022B000FF3C4FF0300E04680BE01468614504F1F8
:1022C0000105156084F800E0046804F1FF3404603F
:1022D00005D00CF1FF3C0FFA8CFC002CEDD1F6433D
:1022E000B14209DB0121C8E72E251468671C17607D
:1022F00025704C1CDBD1F2E70020F0BD2DE9F04F3A
:102300008046002489B0D8F80C30CDE90121D8F8F6
:1023100008200DF11A0003EB020AC8F80CA00D46C4
:10232000ADF81A4003930492CDF81CA0FFF7E8FE25
:1023300057EC106B002D73D0BDF91A50D8F800304F
:102340009D4204DA2A1DA4BF88F819405B1B013B9B
:10235000C8F80030294606AB404607AAFFF788FFB9
:10236000019B83F001030293002800F09C80BDF9DB
:102370001890D8F80030DDF81CB0994500F3BA8009
:1023800005954C465D463946304645F045FF0FFA07
:1023900080F9484645F03CFC02460B46304639463B
:1023A00045F0E8FA00226D4B45F09CFCAB4609F184
:1023B000300906460F460BF8019B002C40F0878041
:1023C000D8F80030002B40F08F80019B002B40F0AC
:1023D0008B805C46059DCDF81CB030463946002206
:1023E0005F4B45F005FF00285ED0224621460120C4
:1023F000302602E000208A457ED211F9013D2E2BC5
:10240000F9D048B93A2BF5D18A450E7076D211F938
:10241000013D2E2B00F08E8001335BB20B70F1E793
:10242000BDF91A504046294606AB07AAFFF720FF20
:1024300000289CD1079C98F919206AB3BDF91A307D
:102440002270002BB4BF2D222B224FF00005B8BF05
:102450005B42444E6270B8BF1BB20C34214686FB0F
:102460000320DA17C2EBA00202EB8200A3EB4003C9
:1024700003F1300013B2013501F8010B8BB9012DC6
:102480000FD0ED43A4F10A024B1913F9011F9C422E
:1024900002F80119F9D1093CC8F8104009B0BDE8AB
:1024A000F08F0C46DAE7079C029B002BC3D014F98F
:1024B000012C302A06D1631E1C4613F9012D302A47
:1024C000FAD007942E2AB5D1013C0794B3E75D46B4
:1024D000D8F8003001349C427FF755AFAB46059DDC
:1024E0005C46CDF81CB078E74FF02E03023505F8B6
:1024F000013CEDE75C4670E70028D5D098F919302B
:10250000D3B1A24538BF23460CD213F9012C2E2A91
:1025100012BF194613F9022C03F1FF311A704B1E3A
:102520009A45F2D36B1CADF81A303123DDE9032153
:102530005354B9E701205EE70134A2450794F4D271
:102540000AF1FF31AAEB0200891ACAF10103214402
:102550001A44204446F05CFEE7E700BF0000244038
:1025600000001440676666662DE9F04F00240646B9
:102570000D4692469B4695B0374617F9010B252824
:102580008DF829000CD0A0B15146A84788B93E4625
:10259000374617F9010B013425288DF82900F2D1AF
:1025A00096F90100252808D15146A847002800F0D7
:1025B000EC80204615B0BDE8F08F00220CAB0793ED
:1025C0000893934B202809931146964616468DF89A
:1025D0002A208DF82820A0F1230300F0C4800D2BC1
:1025E00008D8DFE803F0CA07070707070707CE0781
:1025F000C60707B68DF82900002A00F003818DF880
:102600002810BEF1000F01D08DF82A602A2840F072
:10261000BF805BF8043B002BC0F2E782069301F019
:10262000100397F901000137002B40F0CA802E28D3
:1026300000F0CE804FF0FF33049320F020034C2BAA
:1026400007F1010200F0D580682800F0DA823A46EE
:102650008DF82900561C782800F2DD80DFE810F0A4
:10266000DA00DB00DB00DB00DB00DB00DB00DB0093
:10267000DB00DB00DB00DB00DB00DB00DB00DB0082
:10268000DB00DB00DB00DB00DB00DB00DB00DB0072
:10269000DB00DB00DB00DB00DB00DB00DB00DB0062
:1026A000DB00DB00DB00DB00DB00DB00DB00DB0052
:1026B000DB00DB00DB00DB00DB00DB00DB00DB0042
:1026C000DB00DB00DB00DB00DB00DB00DB00DB0032
:1026D000DB00DB00DB00DB00DB00DB00DB00DB0022
:1026E000DB00DB00DB00DB00DB006701DB00C90196
:1026F000DB00DB00DB00DB00DB00DB00DB00DB0002
:10270000DB00DB00DB00DB00DB00DB00DB00DB00F1
:102710002A01DB00DB00DB00DB00DB00DB00DB0091
:10272000DB00DB00DB003902230267016401C90121
:10273000DB002302DB00DB00DB00DB004A029A0245
:102740002A01DB00DB006D02DB002A01DB00DB007D
:102750005A02012241F0080117F9010F2028A0F1C7
:1027600023037FF43CAF002EF6D106464FF0010E56
:10277000F2E7012241F01001EEE7012241F00401ED
:10278000EAE74FF0010E0646E6E702360134F3E6CB
:10279000A0F13003DAB2092A4FF000020BD817F982
:1027A000010F5BB202EB820203EB4202A0F13003A5
:1027B000DEB2092EF3D901F010030692002B3FF48C
:1027C00036AF21F008018DF828102E287FF432AFA3
:1027D00097F901002A2856D197F902005BF8043BCB
:1027E0000237049320F020034C2B07F101027FF401
:1027F0002BAF9DF8283097F9010043F002038DF8C4
:10280000283025E71146BEF1000F7FF4FDAEFDE64E
:10281000CCE1040016464FF01909BC4B9DF8287016
:10282000984607934B4408939DF92A00069B9945C7
:10283000CDF810905EDD17F0100700F0EB8100235B
:10284000059328B15146A84700287FF4B2AE013461
:1028500009F1FF33002B0493C0F2B1812B464546AA
:10286000B0461E4606E0049B0134013B002B049356
:10287000C0F2A38101355146079515F9010CB04707
:102880000028F0D095E6A0F13003DAB2092A07F16A
:1028900001074FF000020BD817F9010F5BB202EBF2
:1028A000820203EB4202A0F13003D9B20929F3D925
:1028B0000492C2E65A46702852F8043B40F0EA817E
:1028C0009346102118460DF14F03079308930023F8
:1028D0008DF82A3004AAFFF7BDFBDDE90783A3EBDF
:1028E0000809069B9DF8287099459DF92A00CDF8A6
:1028F0001090A0DCA3EB0903002818BF013B17F0E0
:1029000010079DD1013B002B059307DA85E1059B5C
:102910000134013B002B0593C0F2818151462020F8
:10292000A8470028F3D044E600238DF8293000237F
:102930000593049B0BF1070B002BB8BF06232BF06C
:10294000070BB8BF0493FBE802890022002340462E
:10295000494645F039FC48B109F1004301932D2364
:10296000CDF800808DF82A30DDE9008940464946DF
:102970004FF0FF32664B9DF8287045F043FC00286D
:1029800040F07E814046494600224FF4801345F0D6
:102990001BFC40B1404649460022002345F00AFC9A
:1029A000002800F0658149EC108BC7F380020021FC
:1029B00004A8FFF7A3FCDDE907829DF82870A2EBCD
:1029C00008093907069B9DF92A007FF530AF0028DA
:1029D0000CBF1946591E49457FF729AF4FF0300CFF
:1029E00008F801CDA2EB08094945F9DCCDF81C80B7
:1029F0001DE70123049A0238002A8DF82900059367
:102A000040F0128104930BF1070B2BF0070BFBE84E
:102A10000289002200234046494645F0D5FB0028A4
:102A200040F00F81404649464FF0FF32384B9DF849
:102A3000287045F0E7FB002840F00E8140464946EB
:102A400000224FF4801345F0BFFB40B14046494699
:102A50000022002345F0AEFB002800F0138149EC72
:102A6000108BC7F38002012104A8FFF747FCDDE9C2
:102A700007829DF82870A2EB08093907069B9DF98B
:102A80002A007FF5D4AE00280CBF1946591E4945CF
:102A90007FF7CDAE4FF0300C08F801CDA2EB08095E
:102AA0004945F9DCA2E79DF828300BF10402D8076C
:102AB0004BBFBBF90000DBF8003003461846002B83
:102AC000C0F2BA800DF14F0393460A210793089391
:102AD00000E75BF8042B0DF1310308934FF0010977
:102AE000069B9DF828709DF92A000DF130088DF89D
:102AF00030209CE69DF82830DBF80020DB074CBF37
:102B0000148014600BF1040B36E500BF24E20400CE
:102B1000FFFFEF7F634B0BF1040109939DF8283011
:102B2000DF0740F185806F28BBF800308B4679D0F5
:102B3000752814BF10210A21C4E65BF8048BB8F194
:102B4000000F00F0918042460023059312F9013BEB
:102B50000792002B00F09B800027049BB9460133AD
:102B600008EB030006E01346012713F9011BB944E3
:102B700031B11A469042F6D1013A002F00F084801C
:102B8000A2EB0908CDE90782069B9DF828709DF904
:102B90002A004CE69DF828305A0703D5049A0AB952
:102BA000012204923F4ADB0709920BF10401BAD4D7
:102BB000DBF800308B46082184E635464646002F78
:102BC0003FF4DAAC059B013B002B059307DAD3E415
:102BD000059B0134013B002B0593FFF6CDAC51461C
:102BE0002020A8470028F3D0E3E441F010015B4225
:102BF00021F0080197F90100069301378DF828109C
:102C0000E3E59DF8283097F9010043F001038DF8C2
:102C100028301DE54FF0FF330593002711E69DF99D
:102C20002A000EE608214DE6BFF6EDAE0623E9E6E2
:102C3000DBF800308B467BE72D2340428DF82A30AD
:102C400040E709F1004303932D23CDF808808DF868
:102C50002A30DDE90289E5E6134B9A1D98464FF0CC
:102C600006090793089208E7104A02F1FF3873E754
:102C70000F4B9A1D98464FF0060907930892A0E65D
:102C8000094BF6E70A4BE8E7B94690467AE79946DA
:102C9000424677E79DF828701146FF073FF543AF9E
:102CA000934645E7E0E10400FCE1040005E204008E
:102CB000F4E10400FFFFFFFFFFFFFFFFFFFFFFFF47
:102CC00021436587010000001000000000000000A3
:102CD000F43300005C000000F4190000180000004C
:102CE000DC190000696E6465782E68746D6C0000F4
:102CF0003C21444F43545950452068746D6C20501A
:102D000055424C494320222D2F5733432F445444DE
:102D1000205848544D4C20312E30205472616E732F
:102D20006974696F6E616C2F454E22092268747454
:102D3000703A2F7777772E77332E6F72672F545232
:102D40002F7868746D6C312F4454442F7868746DFB
:102D50006C312D7472616E736974696F6E616C2E63
:102D6000647464223E0A3C68746D6C20786D6C6EED
:102D7000733D22687474703A2F7777772E77332EED
:102D80006F72672F313939392F7868746D6C222052
:102D90006C616E673D22656E2209786D6C3A6C61DC
:102DA0006E673D22656E223E3C686561643E3C6D07
:102DB00065746120687474702D65717569763D2243
:102DC000436F6E74656E742D547970652209636F5C
:102DD0006E74656E743D22746578742F68746D6CC2
:102DE0003B09636861727365743D5554462D382202
:102DF0003E0A202020203C6D657461206874747048
:102E00002D65717569763D22436F6E74656E742D04
:102E1000547970652220636F6E74656E743D227400
:102E20006578742F68746D6C3B206368617273659C
:102E3000743D7574662D3822202F3E0A20202020F4
:102E40003C6D65746120687474702D657175697668
:102E50003D22506167652D456E7465722220636F57
:102E60006E74656E743D2272657665616C74726114
:102E70006E73286475726174696F6E3D302E3031E7
:102E80002C207472616E736974696F6E28382929F9
:102E900022202F3E0A202020203C6D65746120688E
:102EA0007474702D65717569763D22506167652D6A
:102EB000457869742220636F6E74656E743D22726A
:102EC000657665616C7472616E7328647572617485
:102ED000696F6E3D302E30312C207472616E7369D3
:102EE00074696F6E2838292922202F3E0A093C6D0B
:102EF000657461206E616D653D22646573637269FE
:102F00007074696F6E2220636F6E74656E743D22FB
:102F1000223E0A093C6D657461206E616D653D223B
:102F20006B6579776F7264732220636F6E74656E60
:102F3000743D22223E0A093C6D65746120687474F8
:102F4000702D65717569763D22436F6E74656E7480
:102F50002D5374796C652D547970652220636F6EE2
:102F600074656E743D22746578742F637373223EAA
:102F70000A093C6D65746120687474702D65717503
:102F800069763D22436F6E74656E742D536372696A
:102F900070742D547970652220636F6E74656E7441
:102FA0003D22746578742F6A61766173637269700B
:102FB00074223E0A202020203C7469746C653E45D2
:102FC0004B2F5241364D3420517569636B20537439
:102FD000617274204578616D706C652050726F6A03
:102FE000656374207C2052656E6573617320456C47
:102FF000656374726F6E6963733C2F7469746C657A
:103000003E0A093C6C696E6B2072656C3D227368E8
:103010006F72746375740969636F6E2220747970BE
:10302000653D22696D6167652F782D69636F6E223A
:1030300020687265663D22696D616765732F666100
:103040007669636F6E2E69636F223E0A093C6C6974
:103050006E6B2072656C3D2269636F6E22207479FD
:1030600070653D22696D6167652F782D69636F6EAC
:103070002220687265663D22696D616765732F66FF
:10308000617669636F6E2E69636F223E0A093C6C3C
:10309000696E6B2072656C3D227374796C65736820
:1030A0006565742220747970653D22746578742F8B
:1030B0006373732220687265663D22736372697060
:1030C00074732F626173652E637373223E0A093C29
:1030D0006C696E6B2072656C3D227374796C6573DC
:1030E000686565742220747970653D227465787412
:1030F0002F6373732220687265663D227363726961
:103100007074732F7374727563747572652E637344
:1031100073223E0A093C6C696E6B2072656C3D221D
:103120007374796C65736865657422207479706551
:103130003D22746578742F6373732220687265660C
:103140003D22736372697074732F6D6F64756C6563
:103150002E637373223E0A093C6C696E6B207265A4
:103160006C3D227374796C65736865657422207494
:103170007970653D22746578742F637373222068BB
:103180007265663D22736372697074732F68696734
:1031900068736C6964652E637373223E0A093C6C24
:1031A000696E6B2072656C3D227374796C6573680F
:1031B0006565742220747970653D22746578742F7A
:1031C0006373732220687265663D2273637269704F
:1031D00074732F68735F637573746F6D2E6373738D
:1031E000223E0A093C736372697074097372633D0D
:1031F00022736372697074732F63616C6C46756EB1
:10320000632E6A73223E3C2F7363726970743E0AA8
:10321000093C736372697074097372633D2273634E
:1032200072697074732F646174655374616D702E6C
:103230006A73223E3C2F7363726970743E0A093CC4
:10324000212D2D5B69660949455D3E3C73637269BA
:103250007074096C616E67756167653D226A61769D
:10326000617363726970742220747970653D227491
:103270006578742F6A617661736372697074222055
:103280007372633D22736372697074732F65786320
:10329000616E7661732E6D696E2E6A73223E3C2FCD
:1032A0007363726970743E3C215B656E6469665D30
:1032B0002D2D3E0A0A093C7374796C653E0A090992
:1032C0002E627574746F6E207B0A0909202062617A
:1032D000636B67726F756E642D636F6C6F723A20EB
:1032E000233130373761613B202F2A20426C7565CE
:1032F000202A2F0A09092020626F726465723A2021
:103300006E6F6E653B0A09092020636F6C6F723A1D
:103310002077686974653B0A09092020706164643C
:10332000696E673A203470783B0A09092020746579
:1033300078742D616C69676E3A2063656E7465728E
:103340003B0A09092020746578742D6465636F72E7
:103350006174696F6E3A206E6F6E653B0A090920D1
:1033600020646973706C61793A20696E6C696E656E
:103370002D626C6F636B3B0A09092020666F6E74C7
:103380002D73697A653A20313070783B0A0909203B
:10339000206D617267696E3A2034707820347078DD
:1033A0003B0A09092020637572736F723A20706FAF
:1033B000696E7465723B0A09097D0A09090A0909DF
:1033C0002E627574746F6E31207B626F72646572E9
:1033D0002D7261646975733A20313570783B7D0ACE
:1033E000093C2F7374796C653E0A090A093C7363C2
:1033F0007269707409747970653D22746578742FF0
:103400006A617661736372697074223E0A09667537
:103410006E6374696F6E20706167654C6F616428BC
:10342000290A097B0A09092F2F204C6F6164207437
:103430006865204C454420636F6E74656E740A099C
:103440000963616C6C46756E6328276C656443681C
:1034500065636B426F78272C20276C65645F63740B
:10346000726C2E636769272C20276F6E4C6F616426
:1034700027293B0A09092F2F205374617274207485
:1034800068652064617465207374616D700A090950
:10349000446174655374616D7053637265656E55F4
:1034A000706461746528293B0A097D0A093C2F7301
:1034B00063726970743E0A3C2F686561643E0A3C21
:1034C000626F6479206F6E4C6F61643D227061673A
:1034D000654C6F61642829223E0A3C646976206944
:1034E000643D22616C6C57726170223E0A093C6433
:1034F00069762069643D2273697465486561646515
:1035000072223E0A093C212D2D2068656164657296
:103510004E6176202D2D3E0A093C6469762069644F
:103520003D226865616465724E6176223E0A090932
:103530003C64697620636C6173733D22636F7270C3
:10354000496E666F4E6176223E0A0909093C756C28
:103550003E0A090909093C6C693E3C6120687265B4
:10356000663D22687474703A2F2F7777772E7265D4
:103570006E657361732E636F6D2F72612F656B2D96
:103580007261366D34223E454B2D5241364D34200A
:103590005265736F75726365733C2F613E3C2F6C8F
:1035A000693E0A090909093C6C693E3C6120687260
:1035B00065663D22687474703A2F2F7777772E7284
:1035C000656E657361732E636F6D2F72612F667305
:1035D00070223E466C657869626C6520536F667434
:1035E00077617265205061636B6167653C2F613E56
:1035F0003C2F6C693E0A090909093C6C693E3C6133
:1036000020687265663D22687474703A2F2F777750
:10361000772E72656E657361732E636F6D2F7261A5
:103620002F666F72756D223E48656C7020262053A0
:103630007570706F72743C2F613E3C2F6C693E094F
:103640000909090A0909093C2F756C3E0A09093C58
:103650002F6469763E0A093C2F6469763E0A093C6C
:10366000212D2D202F6865616465724E6176092DCC
:103670002D3E0A093C212D2D206C6F676F5365612B
:10368000726368092D2D3E0A093C646976206964DD
:103690003D226C6F676F536561726368223E0A0951
:1036A000093C64697620636C6173733D22636F6DBE
:1036B00070616E794C6F676F223E3C613E3C696D74
:1036C00067207372633D22696D616765732F6C6F4C
:1036D000676F2E6A7067222077696474683D2231B3
:1036E000393222206865696768743D2233322220AE
:1036F000616C743D2252656E65736173223E3C2F8E
:10370000613E3C2F6469763E0A09093C6469762073
:10371000616C69676E3D2272696768742220636C10
:103720006173733D22626F785469746C65223E0A3E
:1037300020202020202020203C683120636C6173F1
:10374000733D22636F6D70616E794C6F676F546566
:103750007874223E3C7374726F6E673E3C2F7374B4
:10376000726F6E673E3C2F68313E203C2148656198
:1037700064696E673E0A09093C2F6469763E0A094E
:103780003C2F6469763E0A093C212D2D202F6C6F59
:10379000676F536561726368202D2D3E0A093C6492
:1037A00069762069643D22676C6F62616C4E617658
:1037B000223E0A09093C756C3E0A09093C6C6909FC
:1037C000636C6173733D2273656C65637465642219
:1037D0003E3C6109687265663D22696E6465782EBB
:1037E00068746D6C223E57656C636F6D653C2F612C
:1037F0003E3C2F6C693E0A09093C2F756C3E0A0954
:103800003C2F6469763E0A093C212D2D20636F6EA2
:1038100074656E7473486561646572092D2D3E0A86
:10382000093C6469762069643D22636F6E74656E3D
:103830007473486561646572223E0A09093C6469D3
:10384000762069643D22636F6E74656E747354698B
:10385000746C65223E0A0909093C64697620636C30
:103860006173733D2262726561646372756D627328
:10387000223E0A0909093C64697620636C6173730E
:103880003D2262726561646372756D625F6C696E20
:103890006B223E3C666F6E742073697A653D2234FC
:1038A000223E3C7374726F6E673E3C623E454B2D08
:1038B0005241364D34202D204576616C7561746916
:1038C0006F6E204B697420666F72205241364D3402
:1038D000204D43552047726F75703C2F623E3C2F40
:1038E0007374726F6E673E3C2F666F6E743E3C2F32
:1038F0006469763E0A09093C2F6469763E0A090923
:10390000093C68313E3C7370616E20636C61737377
:103910003D2273656C6563746564223E3C666F6E20
:10392000742073697A653D2233223E517569636B59
:10393000205374617274204578616D706C652050FD
:10394000726F6A6563743C2F666F6E743E3C2F73B2
:1039500070616E3E3C2F68313E0A09093C2F646954
:10396000763E0A093C2F6469763E0A093C212D2DDA
:10397000202F636F6E74656E747348656164657241
:10398000202D2D3E0A093C2F6469763E0A093C64CD
:1039900069762069643D22636F6E74656E74735737
:1039A000726170223E0A093C6469762069643D2296
:1039B0006D61696E426F6479223E0A09093C64694F
:1039C0007620636C6173733D22626F64795F636F0D
:1039D0006E7461696E6572223E3C64697620636C28
:1039E0006173733D22626F64795F626F78223E0A71
:1039F000093C64697620636C6173733D22636C6576
:103A00006172223E3C2F6469763E0A093C2F64694C
:103A1000763E3C2F6469763E0A093C212D2D2063B9
:103A20006F6E74656E74734C656674202D2D3E0A3E
:103A3000093C6469762069643D22636F6E74656E2B
:103A400074734C656674223E0A09093C212D2D20B1
:103A50006C6F63616C4E6176202D2D3E0A09093C26
:103A60006469762069643D226C6F63616C4E617697
:103A7000223E0A0909093C756C3E0A090909093CFC
:103A80006C6909636C6173733D2273656C65637463
:103A90006564223E3C666F6E742073697A653D22D0
:103AA00033223E576562205365727665723C2F66FD
:103AB0006F6E743E3C2F6C693E0A0909093C2F75F4
:103AC0006C3E0A09093C2F6469763E0A09093C21CB
:103AD0002D2D202F6C6F63616C4E6176202D2D3E55
:103AE0000A09090A09093C64697620636C617373E9
:103AF0003D227263426F785F67726179426F7264D0
:103B00006572223E0A0909093C64697620636C618A
:103B100073733D22626F78546F70223E3C2F64694C
:103B2000763E0A0909093C64697620636C61737307
:103B30003D22696E6E6572426F78223E0A0909095C
:103B40003C7020636C6173733D22626F78546974BA
:103B50006C652070623035223E446973706C617907
:103B600020436F6E736F6C653C2F703E0A09090924
:103B70003C7020636C6173733D22646F744C696E9A
:103B800065546F70223E3C2F703E0A0909093C645F
:103B900069762069643D227265616C54696D654384
:103BA0006C6F636B223E090A09090909093C702000
:103BB000636C6173733D22626F785469746C652025
:103BC00070623031223E4465766963652049443C29
:103BD0002F703E0A09090909093C70207374796C39
:103BE000653D226D617267696E2D6C6566743A2061
:103BF000343470783B223E20202D20203C62723EDF
:103C000020202D20203C2F72696768743E3C2F7065
:103C10003E3C62723E0A09090909093C7020636C46
:103C20006173733D22626F785469746C65207062B1
:103C30003031223E4D43552054656D70657261747C
:103C4000757265202846293A202D2D2E2D2D3C2FCA
:103C5000703E0909090A09090909093C7020636CC9
:103C60006173733D22626F785469746C6520706271
:103C70003031223E4D43552054656D70657261743C
:103C8000757265202843293A202D2D2E2D2D3C2F8D
:103C9000703E0909090A09090909093C7020636C89
:103CA0006173733D22626F785469746C6520706231
:103CB0003031223E426C7565204C4544204174747D
:103CC00072696275746573203C2F703E0A09090998
:103CD00009093C7020636C6173733D22626F7854F4
:103CE00069746C652070623031223E467265717570
:103CF000656E63792028487A293A20313C2F703E3E
:103D00000909090A09090909093C7020636C6173F2
:103D1000733D22626F785469746C65207062303133
:103D2000223E496E74656E73697479202825293A9C
:103D30002031303C2F703E0A092020090920202024
:103D4000203C2F6469763E0A20202020202020205D
:103D5000202020203C2F6469763E20202020202037
:103D60002020202020200A0909093C64697620636C
:103D70006C6173733D22626F78426F74746F6D2251
:103D80003E3C2F6469763E0A09093C2F6469763E01
:103D90000A09090A3C64697620636C6173733D22E9
:103DA0007263426F785F67726179426F72646572A5
:103DB000223E0A0909093C64697620636C617373C9
:103DC0003D22626F78546F70223E3C2F6469763ECC
:103DD0000A0909093C64697620636C6173733D22AA
:103DE000696E6E6572426F78223E0A0909093C705D
:103DF00020636C6173733D22626F785469746C65E3
:103E0000223E436F6E74726F6C2050616E656C3C25
:103E10002F703E0A0909093C7020636C6173733D81
:103E200022646F744C696E65546F70223E3C2F7033
:103E30003E0A0909093C7020636C6173733D22627C
:103E40006F785469746C652070623031223E3C6238
:103E50007574746F6E20636C6173733D2262757448
:103E6000746F6E20627574746F6E3122206F6E6392
:103E70006C69636B3D227377322829223E53323CB2
:103E80002F627574746F6E3E2020557365722053D7
:103E9000776974636820323C62723E3C2F703E0A40
:103EA0002020202020202020202020203C7020695D
:103EB000643D22737732223E3C2F703E0A09090985
:103EC0003C7020636C6173733D22626F7854697437
:103ED0006C652070623031223E3C627574746F6E86
:103EE00020636C6173733D22627574746F6E20621F
:103EF0007574746F6E3122206F6E636C69636B3DF5
:103F0000227377312829223E53313C2F6275747415
:103F10006F6E3E2020557365722053776974636815
:103F200020313C62723E3C2F703E0A20202020202F
:103F3000202020202020203C702069643D227377BF
:103F400031223E3C2F703E0A0909093C2F646976F4
:103F50003E0A0909093C64697620636C6173733D0C
:103F600022626F78426F74746F6D223E3C2F6469D9
:103F7000763E0A09093C2F6469763E0A0A0A090A54
:103F8000093C2F6469763E0A093C212D2D20636F80
:103F90006E74656E74734C656674202D2D3E0A0A2E
:103FA000093C212D2D20636F6E74656E74734D6115
:103FB000696E202D2D3E0A093C6469762069643DB6
:103FC00022636F6E74656E74734D61696E223E0A72
:103FD0000A09093C703E3C7461626C652077696433
:103FE00074683D22353825222020626F7264657224
:103FF0003D2230222063656C6C70616464696E6779
:104000003D2230223E0A2020202020202020202077
:1040100020200A0920203C74723E0A202020202003
:10402000202020202020203C74643E0A093C623E6F
:10403000496E74726F64756374696F6E3C2F623E73
:104040000A0A3C703E5468697320656D6265646459
:104050006564207765622073657276657220697386
:104060002072756E6E696E67206F6E2074686520B1
:104070005241364D34204D435520616E64206973A2
:1040800020696D706C656D656E746564207573690B
:104090006E672052656E6573617320466C65786942
:1040A000626C6520536F667477617265205061633E
:1040B0006B6167652C204672656552544F532B54D3
:1040C00043502C20616E64206F70656E20736F7595
:1040D00072636520576562696F2E203C2F703E0A1F
:1040E0000A3C703E5468697320776562207365727C
:1040F0007665722064656D6F6E737472617465733A
:1041000020686F772075736572732063616E206518
:104110006173696C792063726561746520612070D8
:10412000726F66657373696F6E616C2C2075736551
:10413000722D667269656E646C792C20616E6420E4
:10414000706C6174666F726D2D696E646570656EFA
:1041500064656E74207573657220696E746572662D
:1041600061636520666F722070726F64756374732B
:104170002F6170706C69636174696F6E732074680D
:10418000617420726571756972652072656D6F74F6
:104190006520636F6E74726F6C20616E64206D6F4A
:1041A0006E69746F72696E672E3C2F703E0A0A3C0E
:1041B00062723E0A3C623E496E7374727563746942
:1041C0006F6E733C2F623E0A3C6F6C207479706591
:1041D0003D2231223E0A3C6C693E50726573732069
:1041E00074686520706879736963616C20757365A4
:1041F0007220627574746F6E7320533120616E6427
:104200002F6F72205332206F6E2074686520454BEB
:104210002D5241364D3420626F6172642E205468F5
:104220006520626C75652075736572204C45442766
:104230007320696E74656E7369747920616E642F82
:104240006F72206672657175656E63792077696C2F
:104250006C206368616E67652E2054686520696E06
:1042600074656E7369747920616E642F6F72206655
:1042700072657175656E63792077696C6C20726503
:10428000667265736820696E20746865204469737E
:10429000706C617920436F6E736F6C652E2054686B
:1042A00069732064656D6F737472617465732074D3
:1042B000686520636F6D6D756E69636174696F6E9B
:1042C0002066726F6D207468652073657276657202
:1042D00020746F2074686520636C69656E742E3C71
:1042E0002F6C693E0A3C6C693E5072657373207492
:1042F000686520736F667477617265207573657287
:1043000020627574746F6E7320533120616E642F58
:104310006F72205332206F6E20746865207765625B
:104320002073657276657220436F6E74726F6C20B5
:1043300050616E656C2E2054686520626C75652036
:1043400075736572204C4544277320696E74656EE1
:104350007369747920616E642F6F72206672657163
:1043600075656E63792077696C6C206368616E6730
:10437000652E2054686520696E74656E7369747962
:1043800020616E642F6F72206672657175656E6351
:10439000792077696C6C2072656672657368206934
:1043A0006E2074686520446973706C617920436F76
:1043B0006E736F6C652E20546869732064656D6F31
:1043C000737472617465732074686520636F6D6DBA
:1043D000756E69636174696F6E2066726F6D2074AB
:1043E000686520636C69656E7420746F20746865FD
:1043F000207365727665722E203C2F6C693E0A3CF4
:104400002F6F6C3E0A0A3C703E506C6561736520EC
:10441000726566657220746F2074686520454B2D47
:104420005241364D3420517569636B20537461726B
:104430007420477569646520616E642051756963F5
:104440006B205374617274204578616D706C6520C7
:1044500050726F6A65637420736F75726365206351
:104460006F646520666F72206D6F7265206465747D
:1044700061696C732E200A3C2F703E0A0A0A3C2F99
:1044800074643E0A2020202020202020202020208C
:104490003C74643E3C64697620616C69676E3D22C1
:1044A00063656E746572223E3C696D67207372634A
:1044B0003D22696D616765732F454B2D5241364D25
:1044C000345F546F702E6A70672220776964746855
:1044D0003D223530302522206865696768743D22A9
:1044E0003530302522202F3E3C2F6469763E3C2F0C
:1044F00074643E0A202020202020202020203C2FF1
:1045000074723E0A0A20202020202020203C2F7494
:1045100061626C653E3C2F703E0A0A0A3C7363720E
:104520006970743E0A66756E6374696F6E20737786
:10453000312829200A20207B0A20202020206361A6
:104540006C6C46756E6328276C6564436865636BA5
:10455000426F78272C20277377315F6374726C2E3B
:10456000636769272C20276F6E4C6F616427293B96
:104570000A20207D0A20200A66756E6374696F6EBA
:10458000207377322829200A20207B0A202020202F
:104590002063616C6C46756E6328276C65644368A4
:1045A00065636B426F78272C20277377325F6374C3
:1045B000726C2E636769272C20276F6E4C6F6164C5
:1045C00027293B0A20207D0A20200A3C2F73637292
:1045D0006970743E0A0A0A3C64697620636C6173F0
:1045E000733D226261636B546F546F70206D74333E
:1045F00030223E3C212D2D202F636F6E74656E742A
:10460000734D61696E202D2D3E0A093C212D2D2010
:10461000636F6E74656E74735269676874202D2DB4
:104620003E3C212D2D202F636F6E74656E74735286
:1046300069676874202D2D3E203C2F6469763E0A00
:10464000093C2F6469763E0A093C2F6469763E0A6C
:10465000093C2F6469763E0A093C646976206964E6
:104660003D22666F6F746572223E0A09093C703EF6
:1046700026636F70793B20323032302052656E6590
:1046800073617320456C656374726F6E6963732028
:10469000436F72706F726174696F6E2E09416C6C3A
:1046A00009726967687473207265736572766564F0
:1046B0002E3C2F703E0A093C2F6469763E0A3C2F3F
:1046C0006469763E0A3C2F626F64793EC819000027
:1046D00018000000AD19000061646D696E2E6874E9
:1046E0006D6C00003C21444F435459504520687480
:1046F0006D6C205055424C494320222D2F57334397
:104700002F445444205848544D4C20312E302054CE
:1047100072616E736974696F6E616C2F454E220908
:1047200022687474703A2F7777772E77332E6F72F2
:10473000672F54522F7868746D6C312F4454442F76
:104740007868746D6C312D7472616E736974696F01
:104750006E616C2E647464223E0A3C68746D6C2039
:10476000786D6C6E733D22687474703A2F7777772A
:104770002E77332E6F72672F313939392F7868745D
:104780006D6C22206C616E673D22656E2209786D2A
:104790006C3A6C616E673D22656E223E3C686561D5
:1047A000643E3C6D65746120687474702D6571752C
:1047B00069763D22436F6E74656E742D5479706511
:1047C0002209636F6E74656E743D22746578742F70
:1047D00068746D6C3B09636861727365743D555410
:1047E000462D38223E0A202020203C6D6574612031
:1047F000687474702D65717569763D22436F6E74AF
:10480000656E742D547970652220636F6E74656EC9
:10481000743D22746578742F68746D6C3B206368F6
:1048200061727365743D7574662D3822202F3E0ABF
:10483000202020203C6D65746120687474702D65A3
:10484000717569763D22506167652D456E7465729C
:104850002220636F6E74656E743D227265766561A9
:104860006C7472616E73286475726174696F6E3DE9
:10487000302E30312C207472616E736974696F6EE2
:104880002838292922202F3E0A202020203C6D652F
:10489000746120687474702D65717569763D22505D
:1048A0006167652D457869742220636F6E74656E4B
:1048B000743D2272657665616C7472616E732864F2
:1048C00075726174696F6E3D302E30312C207472B8
:1048D000616E736974696F6E2838292922202F3E12
:1048E0000A093C6D657461206E616D653D226465E9
:1048F000736372697074696F6E2220636F6E746582
:104900006E743D22223E0A093C6D657461206E6121
:104910006D653D226B6579776F7264732220636FDA
:104920006E74656E743D22223E0A093C6D657461A9
:1049300020687474702D65717569763D22436F6EC1
:1049400074656E742D5374796C652D54797065227D
:1049500020636F6E74656E743D22746578742F6386
:104960007373223E0A093C6D65746120687474702B
:104970002D65717569763D22436F6E74656E742D79
:104980005363726970742D547970652220636F6E61
:1049900074656E743D22746578742F6A61766173F4
:1049A0006372697074223E0A093C7469746C653ED6
:1049B00052534B2B20666F722074686520525A2F19
:1049C00041314820576562456E67696E65097C20F4
:1049D00052656E6573617320456C656374726F6EAA
:1049E000696373204575726F70653C2F7469746CD0
:1049F000653E0A093C6C696E6B2072656C3D2273E2
:104A0000686F72746375740969636F6E22207479BC
:104A100070653D22696D6167652F782D69636F6EE2
:104A20002220687265663D22696D616765732F6635
:104A3000617669636F6E2E69636F223E0A093C6C72
:104A4000696E6B2072656C3D2269636F6E22207403
:104A50007970653D22696D6167652F782D69636F97
:104A60006E2220687265663D22696D616765732FED
:104A700066617669636F6E2E69636F223E0A093C38
:104A80006C696E6B2072656C3D227374796C657312
:104A9000686565742220747970653D227465787448
:104AA0002F6373732220687265663D227363726997
:104AB0007074732F626173652E637373223E0A09EB
:104AC0003C6C696E6B2072656C3D227374796C6509
:104AD00073686565742220747970653D2274657809
:104AE000742F6373732220687265663D227363724C
:104AF000697074732F7374727563747572652E6345
:104B00007373223E0A093C6C696E6B2072656C3DC2
:104B1000227374796C65736865657422207479708A
:104B2000653D22746578742F637373222068726503
:104B3000663D22736372697074732F6D6F64756C58
:104B4000652E637373223E0A093C6C696E6B20729A
:104B5000656C3D227374796C657368656574222099
:104B6000747970653D22746578742F6373732220A5
:104B7000687265663D22736372697074732F686929
:104B80006768736C6964652E637373223E0A093C1F
:104B90006C696E6B2072656C3D227374796C657301
:104BA000686565742220747970653D227465787437
:104BB0002F6373732220687265663D227363726986
:104BC0007074732F68735F637573746F6D2E637386
:104BD00073223E0A093C73637269707409737263CD
:104BE0003D22736372697074732F63616C6C4675D8
:104BF0006E632E6A73223E3C2F7363726970743E3B
:104C00000A093C736372697074097372633D22739D
:104C10006372697074732F646174655374616D702D
:104C20002E6A73223E3C2F7363726970743E0A09C8
:104C30003C73637269707409747970653D227465A0
:104C400078742F6A617661736372697074223E0AA8
:104C50000966756E6374696F6E20706167654C6F6D
:104C6000616428290A097B0A09092F2F204C6F61EA
:104C70006409746865094C454409636F6E74656E18
:104C8000740A090963616C6C46756E6328276C654C
:104C900064436865636B426F78272C20276C6564DA
:104CA0005F6374726C2E636769272C20276F6E4CCC
:104CB0006F616427293B0A09092F2F205374617201
:104CC00074207468652064617465207374616D700C
:104CD0000A0909446174655374616D7053637265A8
:104CE000656E55706461746528293B0A097D0A095F
:104CF0003C2F7363726970743E0A3C2F686561646F
:104D00003E0A3C626F6479206F6E4C6F61643D2295
:104D1000706167654C6F61642829223E0A3C6469B2
:104D2000762069643D22616C6C57726170223E0A84
:104D3000093C6469762069643D227369746548653D
:104D400061646572223E0A093C212D2D206865614F
:104D50006465724E6176202D2D3E0A093C646976A9
:104D60002069643D226865616465724E6176223E09
:104D70000A09093C64697620636C6173733D2263A0
:104D80006F7270496E666F4E6176223E0A0909099C
:104D90003C756C3E0A090909093C6C693E3C61207E
:104DA000687265663D22687474703A2F2F77777742
:104DB0002E72656E657361732E65752F636F6D70EE
:104DC0002F223E41626F75740952656E657361737F
:104DD0003C2F613E3C2F6C693E0A090909093C6C75
:104DE000693E3C6120687265663D22687474703A61
:104DF0002F2F7777772E72656E657361732E6575C9
:104E00002F70726573732F223E5072657373204347
:104E1000656E7465723C2F613E3C2F6C693E0A09D9
:104E20000909093C6C693E3C6120687265663D2257
:104E3000687474703A2F2F7777772E72656E65736A
:104E400061732E65752F6576656E742F223E4576EB
:104E5000656E74733C2F613E3C2F6C693E0A0909F4
:104E600009093C6C693E3C6120687265663D2268B8
:104E70007474703A2F2F7777772E72656E65736131
:104E8000732E65752F6361726565722F223E4361D3
:104E900072656572733C2F613E3C2F6C693E0A0956
:104EA0000909093C6C693E3C6120687265663D22D7
:104EB000687474703A2F2F7777772E72656E6573EA
:104EC00061732E65752F69722F223E496E76657368
:104ED000746F722052656C6174696F6E733C2F61E0
:104EE0003E3C2F6C693E0A090909093C6C693E3C4D
:104EF0006120687265663D22687474703A2F2F775E
:104F000077772E72656E657361732E65752F636F8B
:104F10006E746163742F223E436F6E7461637420FC
:104F200055733C2F613E3C2F6C693E0A0909093CD0
:104F30002F756C3E0A09093C2F6469763E0A093CCC
:104F40002F6469763E0A093C212D2D202F6865616A
:104F50006465724E6176092D2D3E0A093C212D2D86
:104F6000206C6F676F536561726368092D2D3E0A6F
:104F7000093C6469762069643D226C6F676F5365F4
:104F800061726368223E0A09093C64697620636C99
:104F90006173733D22636F6D70616E794C6F676FE3
:104FA000223E3C613E3C696D67207372633D22691D
:104FB0006D616765732F6C6F676F2E6A7067222053
:104FC00077696474683D22313932222068656967E7
:104FD00068743D2233322220616C743D2252656E2A
:104FE00065736173223E3C2F613E3C2F6469763EBF
:104FF0000A09093C64697620616C69676E3D22721A
:10500000696768742220636C6173733D22626F78F4
:105010005469746C65223E0A202020202020202024
:105020003C683120636C6173733D22636F6D706106
:105030006E794C6F676F54657874223E3C7374725E
:105040006F6E673E525A41314C5520536F667477EC
:10505000617265205061636B6167653C2F73747288
:105060006F6E673E3C2F68313E0A09093C2F646928
:10507000763E0A093C2F6469763E0A093C212D2DB3
:10508000202F6C6F676F536561726368202D2D3E12
:105090000A093C6469762069643D22676C6F62612D
:1050A0006C4E6176223E0A09093C756C3E0A09097C
:1050B0003C6C693E3C6120687265663D22696E64A5
:1050C00065782E68746D6C223E57656C636F6D65F4
:1050D0003C2F613E3C2F6C693E0A09093C6C693EDD
:1050E0003C6120687265663D226D6173735F737405
:1050F0006F726167652E68746D6C223E4D617373CB
:105100002053746F726167653C2F613E3C2F6C6960
:105110003E0A09093C6C6909636C6173733D227333
:10512000656C6563746564223E3C610968726566FE
:105130003D2261646D696E2E68746D6C223E41641F
:105140006D696E697374726174696F6E3C2F613E34
:105150003C2F6C693E0A09093C2F756C3E0A093CDC
:105160002F6469763E0A093C212D2D20636F6E74F1
:10517000656E7473486561646572092D2D3E0A0978
:105180003C6469762069643D22636F6E74656E7459
:1051900073486561646572223E0A09093C64697658
:1051A0002069643D22636F6E74656E747354697414
:1051B0006C65223E0A0909093C64697620636C61CA
:1051C00073733D2262726561646372756D627322EE
:1051D0003E0A0909093C64697620636C6173733D7A
:1051E0002262726561646372756D625F6C696E6B79
:1051F000223E41646D696E697374726174696F6E89
:10520000092F3C2F6469763E0A09093C2F646976B0
:105210003E0A0909093C68313E3C7370616E2063A7
:105220006C6173733D2273656C6563746564223EC3
:10523000576562456E67696E653C2F7370616E3E9F
:105240003C2F68313E0A09093C2F6469763E0A0901
:105250003C2F6469763E0A093C212D2D202F636F77
:105260006E74656E7473486561646572202D2D3EA1
:105270000A093C2F6469763E0A093C646976206914
:10528000643D22636F6E74656E7473577261702231
:105290003E0A093C6469762069643D226D61696E4D
:1052A000426F6479223E0A09093C64697620636C86
:1052B0006173733D22626F64795F636F6E746169BD
:1052C0006E6572223E3C64697620636C6173733D47
:1052D00022626F64795F626F78223E0A093C6469DA
:1052E0007620636C6173733D22636C656172223E4C
:1052F0003C2F6469763E0A093C2F6469763E3C2F58
:105300006469763E0A093C212D2D20636F6E746519
:105310006E74734C656674202D2D3E0A093C6469D9
:10532000762069643D22636F6E74656E74734C659C
:105330006674223E0A09093C212D2D206C6F6361A1
:105340006C4E6176202D2D3E0A09093C6469762059
:1053500069643D226C6F63616C4E6176223E0A097E
:1053600009093C756C3E0A090909093C6C69096325
:105370006C6173733D2273656C6563746564223E72
:1053800041646D696E697374726174696F6E3C2FEC
:105390006C693E0A0909093C2F756C3E0A09093CF3
:1053A0002F6469763E0A09093C212D2D202F6C6F50
:1053B00063616C4E6176202D2D3E0A09090A0909A8
:1053C0003C64697620636C6173733D227263426F43
:1053D000785F67726179426F72646572223E0A0972
:1053E00009093C64697620636C6173733D22626FC6
:1053F00078546F70223E3C2F6469763E0A09090991
:105400003C64697620636C6173733D22696E6E65DE
:1054100072426F78223E0A0909093C7020636C6170
:1054200073733D22626F785469746C6520706230CA
:1054300035223E546F6461793A3C2F703E0A090967
:10544000093C6469762069643D227265616C546927
:105450006D65436C6F636B223E0A0909093C2F643A
:1054600069763E0A0909093C7020636C6173733DDB
:1054700022646F744C696E65546F70223E3C2F70CD
:105480003E0A0909093C6469763E093C612068725C
:1054900065663D22687474703A2F2F7777772E7285
:1054A000656E657361732E65752F70726F647563B9
:1054B00074732F6D70756D63752F727A2F2220743F
:1054C00061726765743D225F626C616E6B223E3C67
:1054D000696D67207372633D22696D616765732F23
:1054E000525A2E676966222077696474683D2231BA
:1054F000323022206865696768743D223432222088
:105500002F3E3C2F613E0A0909093C2F6469763E13
:105510000A0909093C2F6469763E0A0909093C64B5
:10552000697620636C6173733D22626F78426F7499
:10553000746F6D223E3C2F6469763E0A09093C2F48
:105540006469763E0A093C2F6469763E0A093C216B
:105550002D2D20636F6E74656E74734C65667420B8
:105560002D2D3E0A0A093C212D2D20636F6E746596
:105570006E74734D61696E202D2D3E0A093C64697D
:10558000762069643D22636F6E74656E74734D613D
:10559000696E223E0A0A09093C703E3C7461626CE5
:1055A000652077696474683D2231303025220962B4
:1055B0006F726465723D2230222063656C6C70618D
:1055C0006464696E673D2230223E0A090920203C4E
:1055D00074723E0A0909093C74643E4D616E79207B
:1055E0006170706C69636174696F6E73207265714C
:1055F000756972652074686174206F6E6C790970CA
:10560000726976696C65676564207573657273206D
:1056100063616E206368616E67650973656E7369A7
:10562000746976652073657474696E67732E0955A5
:105630007375616C6C790961203C612068726566E4
:105640003D22687474703A2F2F656E2E77696B69EE
:1056500070656469612E6F72672F77696B692F4877
:105660005454505F636F6F6B696522207461726779
:1056700065743D225F626C616E6B223E20436F6FEA
:105680006B69653C2F613E20776F756C64206265A5
:1056900020706C61636564206F6E097468650975BC
:1056A0007365722773206D616368696E6520746F1E
:1056B0002070726576656E742073696D756C7461A7
:1056C0006E656F75732061636365737320746F20FB
:1056D00074686520636F6E74726F6C20696E746598
:1056E0007266616365206279206D6F7265207468EF
:1056F000616E096F6E6509757365722E2054686559
:1057000020636F6F6B6965206F6674656E20636FD1
:105710006E7461696E7309746865096C6F67696E90
:105720002074696D6520616C6C6F77696E670973B1
:10573000657373696F6E7320746F09657870697231
:10574000652E09496620746865206465766963651D
:1057500020697320636F6E6E656374656420746F77
:105760002061096E6574776F726B097769746820C0
:105770007075626C69630961636365737320746833
:1057800065203C6120687265663D22687474703AD9
:105790002F2F656E2E77696B6970656469612E6F56
:1057A00072672F77696B692F5365637572655F53F5
:1057B0006F636B6574735F4C6179657222207461ED
:1057C000726765743D225F626C616E6B223E0953A5
:1057D000656375726520536F636B6574204C6179E6
:1057E000657209656E6372797074696F6E3C2F61C2
:1057F0003E2073686F756C6420626520746F097554
:105800007365642070726F7465637420757365725C
:10581000206E616D657309616E64097061737377E1
:105820006F7264732E203C6120687265663D226849
:105830007474703A2F2F7777772E6F70656E73734D
:105840006C2E6F72672F22207461726765743D221F
:105850005F626C616E6B223E204F70656E20736FCD
:10586000757263652053534C3C2F613E20696D7007
:105870006C656D656E746174696F6E7320617265BD
:105880002072656164696C7920617661696C61621E
:105890006C6509666F72093C6120687265663D221D
:1058A000687474703A2F2F7777772E796173736CE1
:1058B0002E636F6D2F796153534C2F486F6D652E9A
:1058C00068746D6C22207461726765743D225F623A
:1058D0006C616E6B223E09656D626564646564206F
:1058E00073797374656D733C2F613E2E3C2F746425
:1058F0003E0A0909093C74643E3C696D6720737275
:10590000633D22696D616765732F616363657373BE
:10591000636F6E74726F6C2E6A70672209776964A8
:1059200074683D22373522206865696768743D22B6
:10593000393522202F3E3C2F74643E0A090920206D
:105940003C2F74723E0A09093C2F7461626C653EFB
:105950003C2F703E0A09093C64697620636C6173D0
:10596000733D22636F6C756D6E31426C6F636B2299
:105970003E0A09093C68323E53657409746865093A
:10598000636C6F636B3C2F68323E0A0909093C6403
:10599000697620636C6173733D22696E6E65722255
:1059A0003E0A090909093C703E456E74657220740F
:1059B00068652074696D6520696E2074686520666D
:1059C0006F726D61740948483A4D4D20616E6420D4
:1059D000636C69636B0974686509225365742220DE
:1059E000627574746F6E2E3C703E0A090909093C99
:1059F000666F726D206E616D653D227365745F74B4
:105A0000696D6522206D6574686F643D474554205B
:105A1000616374696F6E3D227365745F74696D654F
:105A20002E63676922203E0A090909093C696E70E4
:105A3000757420747970653D227465787422206EC7
:105A4000616D653D22686F757273220976616C75B0
:105A5000653D22222073697A653D22322220206D25
:105A600061786C656E6774683D2232223E203A0A86
:105A7000090909093C696E70757420747970653D77
:105A8000227465787422206E616D653D226D696EA9
:105A900075746573222076616C75653D22222073D2
:105AA000697A653D22322220206D61786C656E67CF
:105AB00074683D2232223E0A090909093C696E7068
:105AC000757420747970653D7375626D69742076A4
:105AD000616C75653D222053657420223E0A0909D8
